:020000040800F2
:1018000000200020113A0008BD330008BF33000853
:1018100000000000000000000000000000000000C8
:10182000000000000000000000000000C1330008BC
:101830000000000000000000C3330008C5330008AA
:10184000613A0008613A0008613A0008613A00080C
:10185000613A0008CD330008313400087D340008B7
:101860000000000079350008613A0008613A00087C
:10187000613A0008613A0008613A0008613A0008DC
:10188000613A0008613A0008613A0008613A0008CC
:1018900000000000613A0008613A0008613A00085F
:1018A0005D290008613A0008613A0008613A0008C1
:0C18B000613A0008613A000800000000E6
:1018C00010B5064C2378002B07D1054B002B02D016
:1018D000044800E000BF0123237010BDAC000020CD
:1018E0000000000010510008044B10B5002B03D07D
:1018F0000349044800E000BF10BDC04600000000DE
:10190000B000002010510008002243088B4274D31D
:1019100003098B425FD3030A8B4244D3030B8B42F0
:1019200028D3030C8B420DD3FF22090212BA030CF9
:101930008B4202D31212090265D0030B8B4219D3DA
:1019400000E0090AC30B8B4201D3CB03C01A5241FA
:10195000830B8B4201D38B03C01A5241430B8B4242
:1019600001D34B03C01A5241030B8B4201D30B032B
:10197000C01A5241C30A8B4201D3CB02C01A524152
:10198000830A8B4201D38B02C01A5241430A8B4215
:1019900001D34B02C01A5241030A8B4201D30B02FE
:1019A000C01A5241CDD2C3098B4201D3CB01C01A18
:1019B000524183098B4201D38B01C01A5241430922
:1019C0008B4201D34B01C01A524103098B4201D310
:1019D0000B01C01A5241C3088B4201D3CB00C01A7D
:1019E000524183088B4201D38B00C01A52414308F5
:1019F0008B4201D34B00C01A5241411A00D201461A
:101A0000524110467047FFE701B5002000F006F88C
:101A100002BDC0460029F7D076E770477047C04640
:101A20009E2110B5C905041C00F090FC002803D1CC
:101A3000201C00F0F9FB10BD9E21201CC90500F000
:101A400045FA00F0F1FB80231B069C466044F2E758
:101A5000F0B54F464646D6464502C0B547000C1C79
:101A60006D0A3F0EC60F002F00D170E0FF2F00D18E
:101A700075E0EB008025ED041D43002399469A464E
:101A80007F3F6002430A984663001B0EE40F002B61
:101A90004ED0FF2B46D04246D0008022D2040243D3
:101AA000904600227F3B3100FF1A4B466140C9B28D
:101AB00013430F2B00D9B5E06E489B00C3589F46D7
:101AC000002398462600454692465346022B00D1F5
:101AD00089E0032B00D19EE0012B18D03B007F331F
:101AE000002B69DD6A0704D00F222A40042A00D0A7
:101AF00004352A0103D5604B1D403B008033FE2B8B
:101B000000DD70E0AD016D0AD8B202E00E000020E9
:101B10000025C0052843F6073043E0BCBA46B1466D
:101B2000A846F0BD4346002B3FD10222FF3F03E011
:101B30004346002B2DD1012231004B466140C9B2F2
:101B400013430F2B34D84D489B00C3589F46002D9C
:101B500013D104239946033B00279A4691E7002DB1
:101B600005D108239946063BFF279A4689E70C23AF
:101B70009946093BFF279A4683E7280000F0F0FBCF
:101B80007627431F9D4000237F4299469A463F1A7D
:101B900077E7404600F0E4FB4246431F9A40762335
:101BA0005B4290461B1A00227DE7FF2303227AE75F
:101BB0000E00FF200025ACE70120C01A1B28A6DC80
:101BC0009E372A00BD40C2406B1E9D4115436B07E6
:101BD00004D00F232B40042B00D004356B0144D5D7
:101BE0000120002595E7FF20002592E780250026AB
:101BF000FF20ED038DE7002398468020C0030542B7
:101C000009D04346034206D1454605436D022600EE
:101C1000FF206D0A7DE78020C00305436D02FF2091
:101C20006D0A76E742466B015001834219D21B22AE
:101C30000025013F01261C006D005B00002C01DB2C
:101C4000984201D81B1A3543013A002AF3D15A1E93
:101C500093411D433B007F330E00002B00DD41E725
:101C6000AAE71A2201251B1AE4E7AD0100206D0A3C
:101C70004FE7C04638510008FFFFFFF778510008D2
:101C8000F0B54F464646D64644024500C0B5640A04
:101C90000F1C2D0EC60F002D00D18DE0FF2D00D1A1
:101CA00092E00023802099469A46E400C004044351
:101CB0007F3D7802430A98467B001B0EFF0F002BE6
:101CC00000D170E0FF2B00D186E04246D000802298
:101CD0007F3BED180023D204024390469C4631001E
:101CE0004B467940681C0F2B1CD8764A9B00D35872
:101CF0009F4639004446E2465346022B0FD0032B41
:101D000000D1D7E0012B37D100200024C0052043AB
:101D1000C9070843E0BCBA46B146A846F0BDFF205B
:101D20000024F3E7260C2404220C44462404240C4B
:101D3000434627001B0C574374435A435E43121912
:101D40003B0C9B189C4203D9802252029446664465
:101D50003F041A043F0CD2199401671EBC411B0CAE
:101D6000920E9B1914439B011C431B0100D49BE062
:101D7000012362081C40144302007F32002A64DD04
:101D8000630704D00F232340042B00D00434230125
:101D900003D502004C4B80321C40FE2ABFDCA4015C
:101DA000640AD0B2B2E74346002B3DD14A46013324
:101DB0001A4391469C4692E7002C29D10423994668
:101DC000033B00259A4674E7002C1BD10823994653
:101DD000063BFF259A466CE74346FF35002B0BD1A7
:101DE00002234A461A4391469C4678E753463100FF
:101DF000022B00D083E792E703234A461A43914619
:101E00009C466CE70C239946093BFF259A4650E710
:101E1000200000F0A5FA7625431F9C4000236D4268
:101E200099469A462D1A44E7404600F099FA4246F0
:101E3000431F9A4000232D1A90469C46763D4EE75C
:101E400080240021FF20E40360E701239B1A1B2B61
:101E500000DD59E722009E30DA4084401300621E04
:101E600094411C43630704D00F232340042B00D06C
:101E7000043463011AD50120002447E78020C00301
:101E8000044209D04346034206D144460443640257
:101E90003900FF20640A39E78020C003044364024C
:101EA0003100FF20640A31E7280065E7A401002023
:101EB000640A2BE78020C00304436402FF20640A05
:101EC00024E7C046B8510008FFFFFFF7F8B5CE463B
:101ED000474643025B0A4E02DA009446720A914674
:101EE00045004A0080B52D0E1F00C40F120EC90F09
:101EF000B609FF2A5BD0012041408C4239D0A81A94
:101F000000285ADD002A6AD0FF2D00D1D9E08022B6
:101F1000D20416431B2800DCE9E001206346181AAE
:101F2000430100D4B4E080018709380000F018FABA
:101F300005388740854200DCCCE02D1AB548384092
:101F4000430704D00F230340042B00D00430430187
:101F500000D4A0E06A1CFE2D00D18DE08001470A6C
:101F6000D2B2D0053843E4072043C0BCB946B046DE
:101F7000F8BDA81A8046002845DD002A70D0FF2D44
:101F800000D19EE08023DB041E4343461B2B00DC74
:101F9000D2E00120604443017AD50135FF2D6BD09A
:101FA00001239D4A0340400810401843C8E7002E13
:101FB00020D08C4223D02800FF38002839D0571B6E
:101FC000002D00D09DE06346002B00D1DBE07B1E9E
:101FD000012F00D10DE1FF2F71D01F0098E0002EDE
:101FE00000D1A7E0421E012800D1E6E0FF2868D01A
:101FF00010008FE701204140A14200D07FE7FF2081
:1020000040428046A8444046002838D0511B002D4D
:1020100000D1AEE0FF2A00D1DFE080236046DB0480
:10202000184384461B2900DCD9E0012015008019E3
:10203000B1E7FE206A1C104271D1002D00D0A6E04D
:102040006346002B00D1D9E00022002E00D188E7A2
:10205000981B430100D4E1E063460C00F01A6FE7DF
:10206000002E00D1B7E00200013A012800D19CE027
:10207000FF2826D0904688E7FF22002771E7FE2040
:102080006A1C104264D0FF2AF6D01500664470081E
:10209000430700D056E7C308FF2D12D05B025F0A4A
:1020A000EAB25EE76246002A00D196E0002E08D030
:1020B0008022D203134204D04846104201D10C00C2
:1020C0004B46002BD8D08027FF031F437F02FF22FF
:1020D0007F0A46E720233A00451B38000135EA40D5
:1020E0005D1BA840431E98410025104328E720238C
:1020F0001B1A32009E40C2403000431E98411043DC
:102100000CE7FF2ADBD080236046DB0418438446BB
:102110001B2F56DD01200C001500301A00E7634626
:102120009F1B7B013DD4002F00D0FEE6002400223F
:10213000002716E70500AFE7320043464146DA4084
:1021400020235B1A9E403000431E9841104321E734
:10215000002DA7D16346002B59D00022002E00D1BC
:10216000FFE630006044430192D52A4B0135184008
:102170008EE76346002B47D04B1E012915D0FF295F
:102180002BD019004EE70C004B463D0084E7624619
:10219000002A8BD1002E92D180270024FF22FF033A
:1021A000DFE663460C00F71ABFE630006044012505
:1021B000430100D46CE70225F2E663460125981B33
:1021C000AEE6202364466046FC40DF1BB840431E59
:1021D000984120439FE705005EE74B4671E72023C7
:1021E00065466046CD40591A8840431E98412843B1
:1021F0001CE763460C000125F01A91E6002E95D0ED
:102200000C004F460022ACE64B460D0044E74F461B
:102210000022A6E6FFFFFFFBFFFFFF7D002800D0A6
:1022200036E7002400279CE641024200C30F490A1A
:102230000020120E7E2A03DD9D2A02DD094A98182D
:102240007047802000040143952A07DC9620821AFB
:10225000D1404842002BF3D10800F1E7963A914073
:10226000F7E7C046FFFFFF7F70B5051E0ED000F0F8
:1022700077F89E2304001B1A962B0CDC082801DD3E
:10228000083CA5406D026D0AD8B201E0002000258F
:10229000C005284370BD992B09DD020029001B32BF
:1022A00091404A1E91410522121AD5400D43052C3A
:1022B00012DC29000C4E31406A0709D00F2028405B
:1022C000042805D004314A0102D59F2331401B1B4D
:1022D00089014D0AD8B2DBE7621F95402900024E02
:1022E00031406A07F4D0E9E7FFFFFFFB84460800AE
:1022F0006146FFE71FB500F0BDF8002801D40021BA
:10230000C8421FBD10B500F049F84042013010BD71
:1023100010B500F0AFF8002801DB002010BD01204F
:1023200010BDC04610B500F0A5F8002801DD002062
:1023300010BD012010BDC04610B500F055F80028B2
:1023400001DC002010BD012010BDC04610B500F01A
:102350004BF8002801DA002010BD012010BDC04656
:102360001C2101231B04984201D3000C10391B0AC5
:10237000984201D3000A08391B09984201D3000989
:10238000043902A2105C40187047C04604030202E0
:1023900001010101000000000000000070B54200D2
:1023A00045024E024C00C30F6D0A0120120E760A40
:1023B000240EC90FFF2A06D0FF2C03D0A24201D160
:1023C000B54206D070BD002DFCD1FF2CFAD1002EF5
:1023D000F8D18B4206D00120002AF3D12800431EF9
:1023E0009841EFE70020EDE770B5420045024E024C
:1023F0004C00C30F6D0A120E760A240EC80FFF2A76
:102400001BD0FF2C0ED0002A1BD1002C01D1002E96
:102410001CD0002D0CD083421CD00221581E084035
:10242000013870BD002E22D1002AF4D1002DF2D146
:102430000028F6D101204042F3E7002D17D1FF2CF0
:10244000F0D0002CE7D1002EE5D1E6E70020002DEA
:10245000E7D0E2E7A24205DCEADBB54202D8E7D3E7
:102460000020DEE74342584140000138D9E702200E
:102470004042D6E770B5420045024E024C00C30F01
:102480006D0A120E760A240EC80FFF2A0BD0FF2CFD
:102490000DD0002A1FD1002C16D1002E14D10020FF
:1024A000002D10D009E0002D0CD1FF2C13D1002EEF
:1024B00008D1002A08D0834212D00221581E0840B9
:1024C000013800E0022070BD002DF4D10028FAD1BF
:1024D00001204042F7E7002CEDD1002EEBD1ECE7D4
:1024E000A24205DCF2DBB54202D8EFD30020EAE7D6
:1024F0004342584140000138E5E7C04607B5012096
:10250000084A916B01439163936B022103400022BF
:1025100001930830019B01F005FB092001F02CFB21
:1025200007BDC04600100240054B00201A88054B2D
:102530009A4204D1044B1888431E9841C0B2704798
:1025400000F8000855AA000002F80008044B00201B
:102550001A88044B9A4201D1034B18887047C04631
:1025600000F8000855AA000002F80008F8B50500B8
:102570000C00FFF7D9FF00280ED0FFF7E7FF094B4B
:1025800000219C46061C82B2271C301CA24200D9A6
:10259000381C80B2884200DCF8BD6346CB5C6B54CB
:1025A0000131F2E708F80008F0B52A4B07000E00E9
:1025B00089B0994202D9002009B0F0BD01F0C8FCF1
:1025C000022304931D3306930124002303A904A8C6
:1025D0000794039301F05CFD051EECD120003C0044
:1025E0001D4A3104330C0A431C4901F0FBFCF3087B
:1025F0000193019BAB4207DC0023194A9E4220DC79
:1026000001F024FD0120D7E76278A37812021B04B1
:102610001A43237861791A43E37809021B061A43A7
:1026200023790F480B43A17909040B43E17908345E
:1026300009060B43E9000918012001F0D3FC01351C
:10264000D7E7985CF95C884202D001F0FFFCB2E762
:102650000133D3E7FC07000055AA000000F800088A
:1026600008F8000830B5012489B00C22002105A823
:1026700002F013FC0221C425A0201D4BAD035A6BB0
:10268000C00522435A635A6B22400192019A5A6B49
:102690000A435A635B6B04950B400293029B154BF4
:1026A00003A9039301F03EFD08230495002503A927
:1026B00011480393059501F035FD2A0021000520FE
:1026C00001F030FA052001F057FA2A002100062017
:1026D00001F028FA062001F04FFA2A002100072015
:1026E00001F020FA072001F047FA09B030BDC046DA
:1026F00000100240E3810000000400507FB510226A
:10270000002102A802F0C9FBA020114B01A9C005BD
:10271000019301F007FD08230193002301A90D484F
:102720000293039301F0FEFC052001F031FA06202C
:1027300001F02EFA072001F02BFA0121064B5A6B0B
:102740008A435A635A6B49188A435A6307B000BDDB
:10275000E38100000004005000100240F0B50126A3
:1027600091B0354D1C22002109A802F096FB0C22E5
:10277000002105A802F091FB6B6BA02733436B632C
:102780006B6B022433400293029B80231B01039353
:102790000623FF0503A9380004940893069602F067
:1027A00073FA80235B01039304940623002403A996
:1027B0003800089305940696079402F065FA802184
:1027C000EA6BC9030A43EA63EB6BFF200B40C621A7
:1027D0000193019B194B89005A5882435A50802219
:1027E00052041A60164D174B09940A932B780B94D8
:1027F000B3400C940E940F94134C09A920000D9330
:1028000002F0BAFA802362689B0413436360E368B2
:102810000E4A1340E360E3680D4A1340E360236807
:102820000C4A1340236023680B4A13402360287826
:1028300000F014F811B0F0BD0010024000E100E01B
:102840008F060020BC7D70100058004001F8FFFF8B
:10285000FF7FFFFFFFFFF7FFFFFFFDFF024B400081
:10286000C0B218707047C0462003002001220A4BF6
:1028700019680A431A60082219680A431A6010226C
:1028800019680A431A60802219680A431A602022D4
:1028900019680A431A607047005800400821084B25
:1028A0001A688A431A601A6849188A431A601A68B3
:1028B00070318A431A601A6860398A431A60704717
:1028C00000580040962310B59B000C00994202D896
:1028D000002901D110BD1C000028FBD022000100FE
:1028E000044802F0D1FA0022034B1A80034B1C80EB
:1028F000F0E7C04630030020880500208A0500204C
:10290000054A138899B201339BB21380034B044AE2
:102910005B6ADBB2535470478C05002000580040BE
:10292000C8000020094B0A491A8892B28A5C0949FA
:10293000D2B28A621A88013292B21A80064A198883
:102940001288914201D300221A8070478805002026
:1029500030030020005800408A05002070B5474D24
:10296000474C2B6801332B60FA232A689B009A425C
:1029700014D9200002F0D8F96368424A13400122BA
:102980006360236893432360236807329343236083
:10299000FFF7E4FEFFF76AFF00232B600822A3691C
:1029A000134228D0FF20A36937495B0C09785B00EC
:1029B000034099423BD1354D2B88002B0AD0FFF7BD
:1029C0006DFF2988324889B200F098F900232B80E6
:1029D000FFF74CFF8022A369520213421BD1082348
:1029E000E2691343E3610423226813430122236055
:1029F000284B1A6070BD1023A2691A421BD1A3692B
:102A00009B071CD4A3695B071CD42023A2691A422C
:102A10001BD1A369EEE7A169082311420BD0E2693B
:102A20001343E3610223226813432360E2E7E3696F
:102A30001A43E261DEE7E2691343E361DAE7FFF795
:102A400071FFD7E7FFF75CFFD4E7E2691343E36167
:102A50000123A2691A4200D1A3610024FFF71EFFDF
:102A60000A4D0B48298889B200F048F92C80FFF7FD
:102A7000FDFE084B1C60084B1C60BBE72C030020CC
:102A800000580040FFFFFFFD200300208C050020C0
:102A9000C8000020280300202403002080230D4AC2
:102AA00082B09B050C49581819000068043308606F
:102AB0009342F7D10120094A116C01431164136C50
:102AC000074A03400193019B032311680B431360E2
:102AD00002B07047C0000020001800E8001002405B
:102AE0000000014070B50124C026A02586B0142244
:102AF000002101A802F0D1F90C4B76015A6BED05CB
:102B000022435A635B6B002223403100280000936C
:102B1000009B01F0BBFB0023280001A90196029352
:102B20000394049301F0FEFA06B070BD0010024059
:102B300070B501248026A02586B01422002101A8AA
:102B400002F0ABF90D4BB6015A6BED0522435A6307
:102B50005B6B22002340310028000093009B01F0B2
:102B600095FB00232800039301A9033301960294E7
:102B7000049301F0D7FA06B070BDC04600100240C1
:102B8000802170B51B4D49002800FFF7EFFC1A4962
:102B90001A4A1B4C1B4B002818D11278463008707B
:102BA0002870190020006A70202202F06DF9164981
:102BB0002022164802F068F98021154B40341B781A
:102BC000280023704900FFF7EFFC70BD28780870DB
:102BD0006978180011702100202202F055F9403464
:102BE00020220A49084802F04FF92278084B1A704F
:102BF000EBE7C0468F0500208F06002095060020D9
:102C000091050020A8060020C8060020B10500207C
:102C10009C060020802170B5104C49002000FFF771
:102C2000A5FC002819D00E4B0E4D1B7820222370D6
:102C30000D4B28001B780D49637002F025F90C49F3
:102C400020220C4802F020F980210B4B40351B78E4
:102C500020002B704900FFF7A7FC70BD8F050020F6
:102C60008F0600209105002095060020A806002070
:102C7000C8060020B10500209C060020A02110B548
:102C800001241C4BC9050A691878224002431A70B6
:102C90000A6924191878224002431A700A691878C0
:102CA0009206D20FA24002431A700A69187852069F
:102CB000D20FD20002431A700A6918781206D20F96
:102CC000120102431A700A6918781204D20F5201D5
:102CD00002431A70084A126918781207D20F92013B
:102CE00002431A700A691978D205D20FD2010A4339
:102CF0001A7010BD9D06002000040050F0B500269B
:102D00009BB00D0004002C2231000FA80E9602F09B
:102D1000C4F8012D00D83AE12378FF2B0FD1022D02
:102D20000BD10123E3566278B34206DBBF4B1A7026
:102D30000122BF4B1A70FFF711FD1BB0F0BDF12B44
:102D40000ED1637801215A1E9341BA4ADBB2137047
:102D5000B74B19701378002BEFD0FFF7E9FEECE7C3
:102D6000F02B03D10122B24B1A70E6E71A00103A99
:102D7000092A1ED831000EAA01262378103B5B18C1
:102D8000DBB2D654567A0131B4466746605C967A17
:102D9000002F07D1002E01D1A74EF0546B1E99428F
:102DA000EADBCAE7002EF9D1092BF7D1A34B187043
:102DB000F4E71A00203A232A38D8A14E306800F0F0
:102DC000E7FC2422011E9F4F26D0386802F05CF8F1
:102DD0003968306800F0B0FC3520002202ABC01822
:102DE0006B1E019330212378203B9B180132A55C98
:102DF000DBB2AC4602AD6D182F39E954C57F002D0A
:102E000006D165463968CD54614635686D68E95428
:102E1000019B9A42E6DB90E702A802F03EF839688F
:102E2000242202A802F030F802A9D2E71A00703A70
:102E30001F2A0BD8844A013D2378703B9B19013629
:102E4000A05DDBB2D054AE42F6DB76E71A007032FA
:102E5000D2B21F2A0BD87D4A013D237870339B19CB
:102E60000136A05DDBB2D054AE42F6DB65E71A0056
:102E7000503A082A35D8764E306800F0BFFC754FBE
:102E8000011E21D00922386801F0FEFF3968306840
:102E900000F088FC00226B1E0EA90193012023780C
:102EA000503B9B180132A55CDBB2C854AC464D7A4E
:102EB000002D05D160463D68E85435686D68E854DA
:102EC000019B9A42EADB38E70021052203A8029120
:102ED00001F0E3FF3968092202A801F0D5FF02A939
:102EE000D5E7FD2B00D028E76678012E00D024E737
:102EF000594D2E702B78002B00D11EE7574CA02780
:102F0000200001F011FF6368554A5648134008221B
:102F100063602368FF05B343236023689343236002
:102F200000F0F0FBFFF7EAFBFFF7DCFD8021380043
:102F3000090101F0A5F94C4E4C4C002806D1802126
:102F40003800490101F09CF9002807D023680133BB
:102F500023602368B342E9D900232B702368B3426E
:102F600008D8BFF34F8F424B424ADA60BFF34F8F0E
:102F7000C046FDE7FFF776FBFFF7C0FA00F082FBE3
:102F8000FFF7ECFBFFF772FC00232360D5E6012D71
:102F900000D0D2E62778FF2F04D129002348FFF77D
:102FA00091FCCAE6FE2F02D129003348F7E7F12F42
:102FB00002D129001F48F2E7002F0BD11D4B1B78CF
:102FC000002B04D0A0238022DB0592019A6101210D
:102FD0002A48E4E73B00603B072B12D82748284AE1
:102FE000037802A933412B40DBB2B354735401364A
:102FF000082EF5D168212078091A89B2603802AB11
:1030000012E03C00103CE3B2092B3BD809220A49EC
:1030100002A801F039FF094B1A211B7802AA53724A
:1030200020001300C91B89B2C018B8E78F06002022
:1030300094060020950600209D0700209C06002095
:103040007C09002074090020A8060020C806002082
:1030500078090020700900208E05002000580040EB
:10306000FFFFFFFD480700205FEA000098060020F0
:1030700000ED00E00400FA05000000209D0600209D
:103080009E0600203C00203CE3B2232B0AD8204BB4
:103090002422196802A801F0F7FE4421C91B200070
:1030A00089B2ACE73C00503CE3B2082B07D8194B7F
:1030B0000922196802A801F0E7FE5921EEE73C0059
:1030C000703CE3B21F2B0DD802A80200124B62CB5A
:1030D00062C262CB62C222CB22C29021C91B89B2DA
:1030E00020185CE73B007033DBB21F2B00D924E6CD
:1030F00002AC2200094B23CB23C223CB23C203CB38
:1031000003C2B0213800C91B89B29038E8E7C04635
:103110007409002070090020A8060020C8060020BD
:1031200007200223244A10B5116881430B43136022
:1031300013680340022BFBD18022204B52001968F8
:103140000A431A608022D20019681142FCD0DA6862
:103150001B4911401B4A0A43DA6080221968520455
:103160000A431A608022D96852050A43DA60802235
:10317000920419681142FCD09A6813490A40072149
:103180009A609A688A43110002220A4338219A60A1
:103190009A680A40102AFBD19A680C490C480A40E8
:1031A0009A6001F023FE032000F05CFC002801D0AF
:1031B00072B6FEE710BDC04600200240001002407B
:1031C0008C80FF1F02080020FFF0FFFFFF8FFFFF32
:1031D0000090D003F0B58DB0FFF760FC00F06AFC02
:1031E000FFF79EFFFFF73EFAFFF788F900F04AFA73
:1031F000FFF7C6FC554B1B78002B01D0FFF798FC5E
:10320000092000F0FDFA0024FFF738FDFFF7A6FAC9
:10321000FFF72CFBE0B20021013400F01FFB092C6A
:10322000F8D100F09BFB01250022494B494C1A6064
:10323000494B1B6893420CD000F05CFC474E33684E
:10324000984206D923680133236000F053FC0A300A
:1032500030602368322B16D9414C200001F064FD08
:103260006368404A1340082263602368AB432360CD
:10327000236893432360FFF771FAFFF7F7FAFA2008
:10328000400000F03DFC03AF24220021380001F093
:1032900004FE00230522190001A8009301F0FDFDA2
:1032A000314E3478002C44D1304B1B78002B14D095
:1032B0002F4BE0B21B78A20023412B4243D02D4B71
:1032C0009958013400F0CAFA082CF1D100212000ED
:1032D00000F0C4FA357000F041FB274B3900186844
:1032E00000F040FA01280ED1204B1C78002C0AD1A6
:1032F000A300E0B2F958013400F0B0FA092CF7D17C
:10330000357000F02BFB1D4B6946186800F060FA21
:1033100001280ED1154B1C78002C0AD16B46E0B267
:10332000195D013400F0F6FA092CF7D1357000F080
:1033300015FB134C2378002B00D175E7FFF76AFCCF
:103340000023237070E70F4BBAE7C04695060020B4
:103350002C030020240300202803002090060020D6
:1033600000580040FFFFFFFD800900209C06002060
:103370009D060020C80600207C0900207809002056
:1033800094060020A806002072B6FEE701200A4B32
:1033900082B0196C0143196480211A6C49050240FE
:1033A0000092009ADA6B0A43DA63DB6B0B400193FD
:1033B000019B02B07047C04600100240FEE7FEE7E6
:1033C0007047704710B500F089FB10BD012010B5A3
:1033D00000F064FF022000F061FFA0220121D2056D
:1033E0001069114B084219D0126918780A4002433B
:1033F0001A70A0220221D2051069084211D0126968
:1034000018780A4002431A70084B1B78002B04D02E
:10341000A0238022DB0592019A6210BD1A788A43AC
:10342000E6E71A788A43EEE79D060020950600201D
:10343000082010B500F032FF08210D4B0D4A186925
:10344000084211D01B690B40591E8B4111789B011A
:103450000B431370084B1B78002B04D0A023802251
:10346000DB0592019A6210BD402113788B43F0E78F
:10347000000400509D0600209506002010B5202075
:1034800000F00CFF402000F009FF802000F006FF54
:103490008020400000F002FF8020000200F0FEFECD
:1034A000A0222021D2051069314B08424BD012696D
:1034B0000A40511E8A41197892000A431A70A022CC
:1034C0004021D2051069084241D012690A40511EBC
:1034D0008A411978D2000A431A70A0228021D205AD
:1034E0001069084237D012690A40511E8A41197882
:1034F00012010A431A70A0228021D20510694900E6
:1035000008422CD012690A40511E8A411978D20112
:103510000A431A70A0228021D205106909020842CC
:1035200021D012690A40511E8A41197852010A437A
:103530001A70104B1B78002B04D0A0238022DB05CF
:1035400092019A6210BD04211A788A43B6E70821D5
:103550001A788A43C0E710211A788A43CAE77F2184
:103560001A780A40D5E720211A788A43E0E7C04656
:103570009D0600209506002010B5024800F094FC3E
:1035800010BDC046EC0600200B4A0C490300891A06
:103590000B4A10B51068002801D10A481060106865
:1035A000C3188B4206D901F031FC0C2303600120C3
:1035B000404210BD1360FCE7000400000020002022
:1035C000E8060020C00900207047000037B5164B00
:1035D000026805009A4225D10220144A144CD16B8E
:1035E0000143D163D36B802203400193019B114BB4
:1035F0002261236021236360113BA36000239218A2
:10360000E3606261E36180228023D2005B012000DD
:10361000A261236200F020FB002801D0FFF7B4FE76
:10362000AC62A56237BDC0460004004000100240F5
:10363000EC0600200800024010B5040086B01422F9
:10364000002101A801F029FC0B4B22689A4211D1FC
:1036500002230A4A0A48516B19435163526B01A96C
:103660001A400092009A20220293013B0192059396
:1036700000F058FD06B010BD0004004000100240EC
:103680000004005030B58BB00C220021684601F0D8
:1036900004FC1C22002103A801F0FFFB174C184B6F
:1036A000002523604F2320006560A560E36025614D
:1036B000A56100F0F1FFA84201D0FFF765FE694661
:1036C00020000095029501F0ABFA002801D0FFF729
:1036D0005BFE6023039300230422200003A90493CC
:1036E0000593079301F03EF8002801D0FFF74CFE48
:1036F0002000FFF7A1FF0BB030BDC04648070020F7
:1037000000040040064B026810B59A4207D102211E
:10371000044A806AD36B8B43D36300F0FBFA10BD7D
:10372000000400400010024010B5082001F098FB92
:1037300000234360036010BD70B505000E00282013
:1037400001F08EFB24223100040001F09DFB0023D8
:1037500063626B68002B02D16C602C6070BD5C6290
:103760006C60FBE770B50400256808002B1E0DD0C7
:103770002422290001F088FB23685B6A2360002B68
:1037800000D16360280001F075FB0123180070BDB3
:103790004068704710B5082001F062FB00234360C9
:1037A000036010BD70B505000E00102001F058FB3D
:1037B00009223100040001F067FB0023E3606B681D
:1037C000002B02D16C602C6070BDDC606C60FBE78C
:1037D00070B50400256808002B1E0DD009222900B1
:1037E00001F052FB2368DB682360002B00D163608B
:1037F000280001F03FFB0123180070BD40687047AE
:1038000010B50421040001F0F7FA0E4B04211860F2
:10381000200001F0F1FA0C4B01211860200001F0AA
:10382000EBFA0A4B1860FFF77FFF094B1860FFF7B0
:10383000B1FF084B09221860FF21074801F02DFB5A
:1038400010BDC046A80700207409002070090020A0
:103850007C090020780900209D070020F7B50400AE
:103860000D00082848D8254B1A5C013A082A01D8CF
:103870000A221A54185DFEF7F7FC2149FEF7E8F812
:10388000FF27061C280C3840FEF7EEFC311CFEF723
:10389000F7F9FEF7C5F883B2280A38400093FEF71F
:1038A000E3FC311CFEF7ECF9FEF7BAF883B228000E
:1038B00038400193FEF7D8FC311CFEF7E1F9FEF722
:1038C000AFF86B46009A1B8880B2BA4200D93B1C05
:1038D0000C4A13556B46019A9B88FF2A00D9FF2397
:1038E000094A1355031CFF2800D9FF23074A135523
:1038F000074BA4001B68E550F7BDC0469D0700209C
:1039000000007F4381090020640900209407002003
:10391000A8070020F8B508281CD807241823CE10C3
:1039200026408F092140CA00F5001A401D4073014E
:103930001E43BB003B434C0121431C011C43354348
:1039400024042B0211431C430C432100FFF786FF84
:103950002000F8BD004CFBE7FFFFFF00F0B5204C56
:1039600085B00421200000F0DDFF2000042101F0DB
:1039700053F91C4B3B2401931425002300211A4AC0
:103980009A5C9446194A9A5C0292194A9A5C03928C
:10399000019A802660460E412700064200D12F0082
:1039A0000298D7802700304200D12F000398D78299
:1039B0002700304200D12F000131D784023208297C
:1039C000E7D1019A013330320192092BD6D1DC23A1
:1039D0000421044A024801F09DF805B0F0BDC0463C
:1039E00048070020AC07002064090020810900205E
:1039F0009407002010B50421034800F093FF002233
:103A0000024B1A7010BDC0464807002080090020F4
:103A10000D488546FFF7D8FD0C480D490D4A002397
:103A200002E0D458C4500433C4188C42F9D30A4A73
:103A30000A4C002301E013600432A242FBD301F0E0
:103A4000EBF9FFF7C7FBFEE7002000200000002095
:103A5000AC00002000520008AC000020BC0900208F
:103A6000FEE7000070B5104B05001978002901D160
:103A7000012070BDFA208000FDF746FF0B4B0100CE
:103A80001868FDF741FF00F093F8041EF0D1032DF4
:103A9000EED8020001202900404200F043F8044B18
:103AA00020001D60E5E7C04608000020040000205B
:103AB0000C0000208023084A5B00116810B50B43FE
:103AC00003201360FFF7CEFF041E03D1FFF75EFC57
:103AD000200010BD0124FBE700200240034A044BF4
:103AE00011681B785B1813607047C0468C09002072
:103AF00008000020014B18687047C0468C09002060
:103B000070B50400FFF7F6FF0500631C02D0044BFC
:103B10001B78E418FFF7EEFF401BA042FAD370BDFC
:103B20000800002030B5FF2503242A000440E400EB
:103B3000A24089012940D243A140C3B200280ADB38
:103B4000C0240B4B80088000C018A40003591A4001
:103B50001143015130BD0F200340083B05489B082D
:103B60009B001B18D86902401143D961F2E7C04697
:103B700000E100E000ED00E0002805DB1F23184015
:103B80001E3B8340014A13607047C04600E100E0DD
:103B9000002809DB1F2318401E3B8340034AD367DC
:103BA000BFF34F8FBFF36F8F7047C04604E100E053
:103BB0008022431E5204012093420DD2C021074AA5
:103BC00007485360036A09061B021B0A0B43036282
:103BD00000200723906013607047C04610E000E0AB
:103BE00000ED00E0F0B5846CC56C6560046D002CE0
:103BF00002D0446D856D65601C25046C084E25401F
:103C00000124AC4077683C43746004686360836857
:103C1000102B02D1A260E160F0BDA160E260FBE781
:103C20000000024010B50400036C094A9B089B1871
:103C30009B00436403681421D8B20838FDF764FE82
:103C4000044BA3641F2318401E3B8340E36410BD54
:103C5000008200108008024070B504000120002C92
:103C600049D02568274B1421E818FDF74DFE0223A3
:103C70008000A61D2064F3772B68234AE168134077
:103C80002B60A3682A680B43216920000B436169FC
:103C90000B43A1690B43E1690B43216A0B431343B7
:103CA0002B60FFF7BFFF8023A268DB019A4201D19E
:103CB000002363603F236268616C13400B60E06C1B
:103CC000A16C013A4860032A16D8104A1048991886
:103CD0000322013B1340023A9A40A26513000022DE
:103CE0008900216560650A60436000200123E0636C
:103CF0000534F377E07770BD002323656365A36522
:103D0000F3E7C046F8FFFDBF0F80FFFF3F820010C2
:103D100040090240F8B5012504002800002C34D0E9
:103D2000276814213B680026AB433B60174BF8180B
:103D3000FDF7EAFD1C238000206418402B0083401F
:103D4000134A3E60516820000B435360FFF76AFF3F
:103D5000636CE26C1E60A36C5A6063685A1E032A8F
:103D600006D895400B495B189B001E600A4B5D60AE
:103D70000020A31D20656065A065E062206360638C
:103D8000A063E0630534D877E077F8BDF8FFFDBFA6
:103D9000000002403F82001040090240F7B5451D77
:103DA0000193EE7F04000220012E34D00138E87721
:103DB000A71DFE7FB4466346F6B2009600268342F6
:103DC00031D10130F8772568E6632868009B984375
:103DD0002860019B2000FFF705FF226B2368B24299
:103DE0001AD00E2219680A431A60626C1168C9035E
:103DF00004D580211068490001431160226D002A1A
:103E000004D0802110684900014311600122002084
:103E100019680A431A60FEBD04211A688A431A60B1
:103E200019680A22DFE78023E363EE77F3E70000F7
:103E3000F8B5811DCB7F022B04D00423C363033B61
:103E40001800F8BD0E240268154D1368076CA343D3
:103E50001360012314689C431460446C22682A4058
:103E600022601C243C40A3400E4A566833435360F2
:103E7000C26C836C5A60036D002B05D01A682A400F
:103E80001A60436D826D5A6001230024CB77431D75
:103E9000DC77826B1300A242D2D090472300CFE799
:103EA000FFFEFFFF00000240F8B51C210427046C50
:103EB000264A21403C008C40166803681D68264253
:103EC0000FD03D420DD01968890602D41968B94354
:103ED000196053681C43036B5460002B1BD0984738
:103EE00019E002273C008C40264215D03D4213D0F9
:103EF0001968890606D40A251968A94319600121A1
:103F0000831DD97753681C4354600022431DDA7720
:103F1000C36A9342E3D1F8BD082427008F403E4294
:103F2000F9D02542F7D00E251C68AC431C60012354
:103F30001D008D402900546821435160821DC363D8
:103F4000D3770022431DDA77436BE2E7000002409B
:103F50000020054B5A69824205DA044A9A60044AF5
:103F60009A605869C00F70470020024023016745DE
:103F7000AB89EFCDF8B50400FFF7BCFD8027060044
:103F80007F02144D2B693B4216D12A69124B110056
:103F90001248194028611A4217D18027FF022B6965
:103FA000180038403B420FD0631CF8D0FFF7A2FD49
:103FB000801BA042F3D306E0631CE3D0FFF79AFD19
:103FC000801BA042DDD30320F8BD054B01205960C2
:103FD000FAE7C04600200240FAC30000FBC300001D
:103FE00090090020F7B5174E0193337804000D00B7
:103FF00002200092012B1ED00123FA2033700023EF
:1040000080007360FFF7B6FF002812D10E4F012C1D
:1040100012D17B6923437B61009B2B60BFF36F8FC1
:10402000019B6B60FA208000FFF7A4FF7B69A3432C
:104030007B6100233370FEBD2800009901F074F805
:10404000F0E7C0469009002000200240FA2010B599
:104050008000FFF78FFF8022044B120659690A4344
:104060005A615869C043C00F10BDC04600200240CD
:10407000044A05485369C90003401943034B1943D7
:10408000516170470020024007E0FFFF020001007D
:10409000F7B5214F05003B7802240191012B1AD07E
:1040A0000123FA203B70002380007B60FFF762FF52
:1040B000041E0ED104236B602B68042B0DD1FA2053
:1040C000164A174B516980000B435361FFF752FFAB
:1040D000040000233B702000FEBD0123019A5B42D7
:1040E0001360AE68AB68EA689B18B3420CD9686885
:1040F0003100FFF7BDFFFA208000FFF73BFF0028EB
:1041000008D00400019B1E600221044A53698B43BE
:104110005361DEE70136E5E7900900200020024008
:10412000040001000023F0B585B00A681400DC40EB
:1041300001D105B0F0BD012514009D402C40019433
:104140002A4200D18EE04A685E009446032264460B
:1041500022400324B440E4430294541E012C2AD884
:104160008768029C2740CC68B4403C438460446824
:104170000127AC432500644624093C409C402C4365
:104180004460C568029C25408C68B4402C43C460E0
:10419000022A12D1DC080725A4000419276A039417
:1041A0000F241D40AD00AC40A7430C69AC40274331
:1041B000039C276201E0032AE3D10468029DB24018
:1041C00025402C0014430460C0246246A40222420D
:1041D00048D0254A03259C08A400A4180F221D409E
:1041E000ED00AA40A027266EFF0596430022B842A4
:1041F0000CD01E4F0132B84208D01D4F0132B842D8
:1042000004D01C4F0132B84200D00232AA406746A7
:1042100032432266144C019A2668019DD2433543ED
:10422000FF0201D435001540674625606668019D90
:104230003543BF0201D435001540674665600E4C1A
:10424000019DE66F3543BF0301D435001540674635
:10425000E5670A4C019EE56F2E43FF0301D415402C
:104260002E00E667013360E70018024000040050AA
:1042700000080050000C00500818024004180240CA
:1042800000690840431E9841C0B27047002A01D01F
:10429000816170478162FCE77047704770B5084DD7
:1042A0000400EB68184202D0E860FFF7F5FF2B69C5
:1042B000234203D020002C61FFF7EFFF70BDC04602
:1042C0000018024070B50124036A026AA243026228
:1042D0004468164A856915400A68154302229343CB
:1042E0008A681343124A904205D0124EB04202D05F
:1042F000114EB04213D10826B343CE68334304268F
:10430000B343904205D00B4A904202D00A4A9042F1
:1043100005D10A4A8E6922404C69344314434A68E5
:10432000446085614263036270BDC0468CFFFEFF3E
:10433000002C01400044014000480140FFFCFFFF09
:10434000036A70B5026A164C164D2240026242683A
:10435000C4692C400D682C43134D2B408D682D02F1
:104360002B43124DA8420ED1114D1D40CB681B02AC
:104370002B43104D2B40104D4E6915408A69324336
:1043800012012A4305E00D4DA842F4D00C4DA8427D
:10439000F1D042604A68C461C263036270BDC04626
:1043A000FFFEFFFF8CFFFEFFFFFDFFFF002C014023
:1043B000FFF7FFFFFFFBFFFFFFCFFFFF00440140C0
:1043C00000480140026A30B5036A114C2340036281
:1043D000104C4368C56925400C68240225430E4CE7
:1043E00022408C68240322430C4CA04205D00C4C84
:1043F000A04202D00B4CA04204D10B4C23404C698C
:10440000A401234343604B68C5610364026230BD6D
:10441000FFEFFFFFFF8CFFFEFFDFFFFF002C0140DF
:104420000044014000480140FFBFFFFF026A70B531
:10443000036A104E104C334003624368456D2540BB
:104440000C6825430D4C22408C68240422430C4CFC
:10445000A04205D00B4CA04202D00B4CA04203D18D
:104460004C6933402402234343604B6845658365B0
:10447000026270BDFFFFFEFF8FFFFEFFFFFFFDFF2B
:10448000002C01400044014000480140026A30B560
:10449000036A114C23400362104C4368456D25406C
:1044A0000C68240225430E4C22408C6824052243CC
:1044B0000C4CA04205D00C4CA04202D00B4CA042A8
:1044C00004D10B4C23404C69A402234343604B6846
:1044D0004565C365026230BDFFFFEFFFFF8FFFFE42
:1044E000FFFFDFFF002C0140004401400048014075
:1044F000FFFFFBFF10B5846A626A82420DD101237F
:104500002377D269002A02D122003E3213702000A4
:10451000FFF770FA0023237710BDA36A834209D105
:1045200002222277DB69002BF1D12300013A3F33CD
:104530001A70ECE7E36A834208D104222277DB6930
:10454000002BE4D12300033A4033F1E7236B83428D
:10455000DDD108222277DB69002BD8D12300073A6E
:104560004133E5E7704710B5846A636A834207D137
:10457000012323772000FFF7F5FF0023237710BDE9
:10458000A36A834201D10223F3E7E36A834201D1A4
:104590000423EEE7236B8342ECD10823E9E770475D
:1045A00010B5846A636A834205D101232200237710
:1045B0003E32137008E0A36A83420BD102232377B3
:1045C000230001223F331A702000FFF7E8FF002389
:1045D000237710BDE26A0123824204D104222277AC
:1045E00022004032E5E7226B824204D10822227782
:1045F00022004132DDE722003D32DAE7204A10B5E1
:104600000368904206D08024E405A04202D01D4CED
:10461000A0420CD17024A3434C68234390420FD096
:104620008024E405A0420BD0164CA04208D0164CC2
:10463000A04205D0154CA04202D0154CA04203D197
:10464000144C2340CC6823438024A3434C69234368
:1046500003608B68C3620B688362904205D00B4B8A
:10466000984202D00A4B984201D10B6903630122A0
:1046700042610369134202D003699343036110BD91
:10468000002C014000040040002000400044014094
:1046900000480140FFFCFFFF70B504000120002C22
:1046A00023D025003D352B78DAB2002B05D123002D
:1046B0003C3320001A70FEF789FF02232B7020681C
:1046C000211DFFF79BFF22000123002048321370B9
:1046D00047340A3A137053709370D3701371537147
:1046E0009371D371137223702B7070BD70B5102449
:1046F000026A036AA3430362154C43688569254037
:104700000C68240225432024A2438C682401224300
:10471000104CA0420FD18024A2431400CA68120199
:1047200022434024A2430C4E4C691E408B69234314
:104730009B00334305E0094CA042F4D0084CA04252
:10474000F1D043604B6885618363026270BDC046EF
:10475000FF8CFFFE002C0140FFF3FFFF00440140EF
:1047600000480140F8B507003C373B7804000D00D5
:1047700016000220012B0CD0013838700C2A51D0C1
:1047800008D8042A2DD0082A3CD0002A17D00023AC
:104790003B70F8BD102A56D0142AF8D12068FFF7D4
:1047A00075FE802223681201596D0A435A655A6DBD
:1047B0002D490A405A652A69596D120251E0206854
:1047C000FFF780FD0822236899690A4304219A6152
:1047D0009A698A439A619A6929690A439A61002011
:1047E000D5E72068FFF782FF8022236812019969CC
:1047F0000A439A619A691C490A409A612A6999692F
:104800001202EAE72068FFF79BFD04212368DA69BA
:104810001643DE61DA698A43DA61DA6929690A4393
:10482000DA61DCE72068FFF7CDFD80222368120102
:10483000D9690A43DA61DA690B490A40DA612A69FF
:10484000D9691202EBE72068FFF7F0FD0822236820
:10485000596D0A4304215A655A6D8A435A655A6D47
:1048600029690A435A65BAE7FFFBFFFF1F2310B50A
:10487000012419408C408A40036AA3430362036AFF
:104880001A43026210BD000070B5040000220068E7
:104890000D00FFF7EBFF23681C4A1D49934205D02A
:1048A0001C4A934202D01C4A93420AD11A6A0A4215
:1048B00007D1186A194A104203D15A6C18480240AD
:1048C0005A641A6A0A4207D1196A144A114203D17A
:1048D00001211A688A431A600123002D03D13E3456
:1048E0000020237070BD042D01D13F34F8E7082D5E
:1048F00001D14034F4E70C2D01D14134F0E7102D03
:1049000001D14234ECE74334EAE7C046002C0140D1
:10491000111100000044014000480140440400001F
:10492000FF7FFFFF10B5FFF7AFFF10BD70B50E00A2
:10493000050011000200002E09D13E321478022039
:10494000023C62425441E4B2002C12D070BD042EED
:1049500001D13F32F2E7082E01D14032EEE70C2EB2
:1049600001D14132EAE7102E01D14232E6E743326B
:10497000E4E72A00002E09D13E321278013A504273
:104980004241D2B2002A13D10120DFE7042E01D127
:104990003F32F2E7082E01D14032EEE70C2E01D172
:1049A0004132EAE7102E3AD142321278012AEBD195
:1049B0000029E9D0002BE7D00222002E31D12800B7
:1049C0003E300270686A4B4AC2624B4A02634B4AED
:1049D00042632A683432FFF7E1F90028D4D18023FA
:1049E0002A689B00D1680B43D360310001222868FC
:1049F000FFF73CFF2B6842498B425FD0414A93420C
:104A00005CD0414A934259D08022D20593425DD175
:104A10009A683E490A40062A60D1002096E7433250
:104A2000C3E7042E14D128003F300270A86A314A2F
:104A3000C262314A0263314A42632A683832FFF760
:104A4000ADF90028A0D180232A68DB00D168CAE72D
:104A5000082E14D1280040300270E86A254AC2624C
:104A6000254A0263254A42632A683C32FFF796F9D9
:104A7000002889D180232A681B01D168B3E70C2E56
:104A800015D1280041300270286B1A4AC2621A4AB6
:104A900002631A4A42632A684032FFF77FF900280E
:104AA00000D071E780232A685B01D1689BE7102E54
:104AB00002D142352A7067E74335FBE78022586C04
:104AC000120202435A648B429ED1A1E7104A9342DC
:104AD0009ED0012219680A431A609EE780210020B7
:104AE00049028A4200D131E7012219680A431A605B
:104AF0002CE7C046F544000867450008A1450008BA
:104B0000002C014000440140004801400700010022
:104B10000004004010B5FFF709FF10BD70B5040098
:104B20000D0008294BD005D800290CD004293FD00E
:104B3000012070BD0C29FBD102682D49D368006BA0
:104B40000B40D36005E002682A49D368406A0B40F5
:104B5000D360FFF76DF9002229002068FFF786FE79
:104B60002368254A2549934205D0254A934202D01D
:104B7000244A93420AD11A6A0A4207D1186A224A81
:104B8000104203D15A6C214802405A641A6A0A4200
:104B900007D1196A1C4A114203D101211A688A43BC
:104BA0001A600123002D11D13E3400202370C0E78C
:104BB00002681749D368806A0B40D360C9E702686E
:104BC0001449D368C06A0B40D360C2E7042D01D1F9
:104BD0003F34EAE7082D01D14034E6E70C2D01D13E
:104BE0004134E2E7102D01D14234DEE74334DCE703
:104BF000FFEFFFFFFFFDFFFF002C01401111000040
:104C0000004401400048014044040000FF7FFFFFD2
:104C1000FFFBFFFFFFF7FFFF10B5FFF77FFF10BDA2
:104C2000F0B5040002223C34257803001000012D69
:104C300023D01D003D352A701A68104E53689068C5
:104C4000B24203D10E4F3B404F683B437027BB43FA
:104C50000F683B435360B24206D08023DB059A4283
:104C600002D0084B9A4204D1802398438B681843A2
:104C70009060012300202B702070F0BD002C0140BB
:104C8000FFFF0FFF00040040F7B5020000270C688B
:104C90002000F84000D1FEBD01202300B8400340B1
:104CA000044233D0486803248446180065465843BC
:104CB0004443013DE443012D0BD88D68966845437C
:104CC00026403543CE6895605E4355689D43354325
:104CD00055600D69D668454326403543D560654625
:104CE000022D0DD14D690195FF2B11D803000F2521
:104CF00043435D43166AAE43019D6B431E431662F8
:104D00001368234064466043034313600137BEE7E2
:104D10000F261B0A5B435B435E43556AB543019E06
:104D200073431D435562EBE70E4A030090420BD1DB
:104D300080220D4B9203D96A0A43DA62DA6A0B4980
:104D400000200A40DA627047094A01209342FAD1F2
:104D50008022054BD203D96A0A43DA62DA6A05492E
:104D6000EEE7C0460054004000100240FFFFDFFFA6
:104D700000580040FFFFBFFF0122036830B5934396
:104D80000360CB688D681B0204682B43144D2C40D4
:104D9000234303604B68134C036103680D691A4396
:104DA000026083688A692340836083682A43DB0A40
:104DB000DB021A438260002D04D0802382681B022C
:104DC000134383600268084B1A400B681A43026061
:104DD00043684A69234013434360002030BDC04606
:104DE000FFE0FFFFFF7FFFFFFFFFCFFF014B1860DA
:104DF0007047C0460400002010B5034B0A000100B4
:104E0000186800F052F810BD10000020014B18681F
:104E10007047C0461000002070B500260C4D0D4CA8
:104E2000641BA410A64209D1002600F071F90A4DB6
:104E30000A4C641BA410A64205D170BDB300EB5808
:104E400098470136EEE7B300EB5898470136F2E792
:104E5000F8510008F8510008F8510008FC5100080A
:104E600010B5034B0100186800F0B8F810BDC0463B
:104E70001000002010B5034B0100186800F042F844
:104E800010BDC04610000020002310B59A4200D18A
:104E900010BDCC5CC4540133F8E703008218934280
:104EA00000D1704719700133F9E770B5130C0D0C80
:104EB0001ED1002B0CD189B294B24C43210000F0DA
:104EC0008DF8051E1BD022000021FFF7E6FF16E03B
:104ED0001D1C0B1C92B289B29CB25143ABB263430E
:104EE0000C0C1C19220C07D1240489B20C43E5E7F1
:104EF000002B01D1131CEDE70C23002503602800D3
:104F000070BD000070B50500002910D00C1F23688B
:104F1000002B00DAE418280000F0E8F81D4A1368B6
:104F2000002B05D163601460280000F0E7F870BD25
:104F3000A34208D9216860188342F3D118685B68DE
:104F400041182160EEE71A005B68002B01D0A342F4
:104F5000F9D911685018A0420BD1206809185018CF
:104F600011608342E0D118685B684118116053609A
:104F7000DAE7A04202D90C232B60D5E7216860183C
:104F8000834203D118685B684118216063605460F4
:104F9000CAE7C046AC09002070B50F4E0D0031685D
:104FA0000400002902D100F08FF8306029002000B1
:104FB00000F08AF8431C0AD00323C51C9D43A84275
:104FC00007D0291A200000F07FF8431C01D10125E9
:104FD0006D42280070BDC046B0090020F7B503221D
:104FE000CB1C9343083306001F000C2B32D20C2736
:104FF000B94231D8300000F079F8324D2B681C00EE
:10500000002C2ED139003000FFF7C6FF0400431CEE
:105010001ED12C682500002D4AD123682900E318F1
:105020003000019300F050F8019B834243D1236884
:105030000337FF1A03239F4308370C2F00D20C2796
:1050400039003000FFF7A8FF431C34D02368DF1974
:10505000276013E0002BCBDA0C23002533602800F7
:10506000FEBD2268D11B20D40B2917D9E219276075
:10507000A34211D12A60636811605360300025009B
:1050800000F03CF807220B35231D9543EA1A9D4298
:10509000E5D05B1BA350E2E75A60ECE76268A342ED
:1050A00001D12A60EAE75A60E8E723006468A7E7CD
:1050B0002C006D68AFE70C233000336000F01EF861
:1050C000CDE7C046AC090020002370B5064D0400B2
:1050D00008002B60FEF758FA431C03D12B68002B05
:1050E00000D0236070BDC046B409002010B502484E
:1050F00000F00CF810BDC046B809002010B50248F9
:1051000000F005F810BDC046B80900207047704790
:10511000F8B5C046F8BC08BC9E467047F8B5C04616
:10512000F8BC08BC9E46704701B40248844601BCE6
:08513000604700BF750000207C
:10513800241C0008B01B00080C1B0008C41A000837
:105148000C1B0008EC1B00080C1B0008C41A000804
:10515800B01B0008B01B0008EC1B0008C41A0008AC
:10516800CA1A0008CA1A0008CA1A0008FA1B000856
:10517800B01B0008B01B00080C1B0008C01A000870
:105188000C1B0008EC1B00080C1B0008C01A0008C8
:10519800B01B0008B01B0008EC1B0008C01A000870
:1051A800CA1A0008CA1A0008CA1A0008F61B00081A
:1051B800241D0008F41C0008F41C0008F21C000858
:1051C800F81C0008F81C0008401E0008F21C000823
:1051D800F81C0008401E0008F81C0008F21C000813
:1051E800EC1D0008EC1D0008EC1D00087C1E0008E2
:0451F800E9180008AA
:0451FC00C1180008CE
:10520000010000000024F400010000000400000080
:10521000140000200000000000000000000000005A
:10522000000000000000000000000000000000007E
:10523000000000000000000000000000000000006E
:10524000000000000000000000000000000000005E
:10525000000000000000000000000000000000004E
:10526000000000000000000000000000000000003E
:105270000000000080220C4B30B55C69D202224352
:105280005A61EFF3108272B64C1CFF34401A0D685D
:1052900045500431A142FAD18021490218690842DF
:0C52A000FCD182F3108830BD00200240D9
:0400000508003A11A4
:00000001FF
